:100000000C9458000C9480000C9480000C94800098
:100010000C9480000C9480000C9480000C94800060
:100020000C9480000C9480000C9480000C94800050
:100030000C9480000C9480000C9480000C94800040
:100040000C9410040C9480000C9480000C9480009C
:100050000C9480000C9480000C9480000C94800020
:100060000C945A040C948000000000002500280025
:100070002B00040404040404040402020202020229
:10008000030303030303010204081020408001025C
:1000900004081020010204081020000000080002DB
:1000A00001000003040700000000000000008805B4
:1000B00011241FBECFEFD8E0DEBFCDBF11E0A0E01E
:1000C000B1E0EAEAFCE002C005900D92A033B1076E
:1000D000D9F721E0A0E3B1E001C01D92A23FB20731
:1000E000E1F710E0C8E5D0E004C02197FE010E94CE
:1000F0004806C735D107C9F70E94BF050C945306BF
:100100000C9400002091CC019091CB01213208F099
:100110004AC08091A8018111FCCF32E03093A80140
:1001200031E03093A7013FEF3093A6011092A50173
:100130002093A401ABEAB1E044E851E0FA013E2F7C
:10014000341B321718F43D913193F9CF109283018B
:1001500020918301990F922B9093830190918201BA
:10016000913061F410928201909183019093BB00D1
:100170009091BC0093FDF8CF95EC01C095EE909363
:10018000BC009091A8019230E1F39091A6019F3FAD
:1001900079F08091A601803241F08091A6018033F0
:1001A00031F084E005C081E003C082E001C083E05B
:1001B0001092AA011092CC011092A9010895CF9239
:1001C000DF92EF92FF920F931F93CF93DF936C0117
:1001D0007A018B01C0E0D0E0CE15DF0589F0D801AF
:1001E0006D918D01D601ED91FC910190F081E02D92
:1001F000C6010995892B11F47E0102C02196ECCF2E
:10020000C701DF91CF911F910F91FF90EF90DF9089
:10021000CF90089590E0FC01E656FF4F3491FC0129
:10022000EA57FF4F2491FC01EE58FF4FE491EE2373
:1002300009F43BC0332339F1333091F038F43130D5
:10024000A9F0323001F584B58F7D12C0373091F0BE
:100250003830A1F03430B9F4809180008F7D03C034
:10026000809180008F77809380000DC084B58F7758
:1002700084BD09C08091B0008F7703C08091B00029
:100280008F7D8093B000F0E0EE0FFF1FE859FF4F25
:10029000A591B4918FB7F894EC91611103C02095AA
:1002A0002E2301C02E2B2C938FBF08953FB7F894B7
:1002B00080917E0190917F01A0918001B091810198
:1002C00026B5A89B05C02F3F19F00196A11DB11DB1
:1002D0003FBFBA2FA92F982F8827820F911DA11DEC
:1002E000B11DBC01CD0142E0660F771F881F991F29
:1002F0004A95D1F7089585ED8093BC008091BC00AC
:1003000084FDFCCF1092A801089540915401262F3E
:1003100030E0240F311D21323105DCF42091A80199
:100320002430C9F4FC0180E090E0861758F4309145
:1003300054012191DC01AE5CBE4FA30FB11D2C9383
:100340000196F3CF80915401680F6093540180E0CF
:10035000089581E0089582E00895089581E090E095
:100360003091310120913001321710F480E090E09B
:100370009195819591090895809131019091300175
:10038000891730F48F5F8093310180E090E0089509
:100390008FEF9FEF08958091300190E0209131011F
:1003A000821B91090895CF92DF92EF92FF920F93F3
:1003B0001F93CF93DF937C01262F972F8A01809183
:1003C000A901882391F0C62FD72F6E01C40ED51E28
:1003D000CC15DD0571F06991D701ED91FC9101908B
:1003E000F081E02DC7010995F3CF642F822F0E9481
:1003F0008501C801DF91CF911F910F91FF90EF9080
:10040000DF90CF900895CF93DF931F92CDB7DEB7E3
:1004100069832091A9012223D1F02091CC012032BF
:1004200040F021E030E0FC013383228380E090E063
:1004300015C08091AA01E82FF0E0E555FE4F9981A3
:1004400090838F5F8093AA018093CC0105C061E007
:10045000CE0101960E94850181E090E00F90DF912E
:10046000CF91089521E001C0220F6A95EAF7DC01DF
:100470001C962C931C971A965C934E931997ED91AA
:10048000FC910484F585E02D60E00994DC01ED9198
:10049000FC910684F785E02D41E0099581E090E02C
:1004A0000895DC01ED91FC910684F785E02D40E094
:1004B00009948F929F92AF92BF92CF92DF92EF9268
:1004C000FF920F931F93CF93DF93EC01423018F00C
:1004D0008C8188608C834F836887222329F0413088
:1004E00019F48C8184608C830E9456014B015C015D
:1004F00084E6C82ED12CE12CF12C0E945601DC019F
:10050000CB0188199909AA09BB09883E9340A10526
:10051000B10558F021E0C21AD108E108F10888EECF
:10052000880E83E0981EA11CB11CC114D104E10403
:10053000F10419F76C8164FD31C0E881F98106840A
:10054000F785E02D42E063E0CE0109958BE496E467
:100550000197F1F7E881F9810684F785E02D42E003
:1005600063E0CE01099503E512E0C8010197F1F7B8
:10057000E881F9810684F785E02D42E063E0CE0151
:100580000995C8010197F1F7E881F9810684F7859B
:10059000E02D42E062E0CE01099517C06062CE0115
:1005A0000E9451028BE496E40197F1F76C8160623E
:1005B000CE010E94510203E512E0C8010197F1F754
:1005C0006C816062CE010E945102C8010197F1F76F
:1005D0006C816062CE010E9451028BEE90E0019727
:1005E000F1F784E08D836CE0CE010E94510261E05E
:1005F000CE010E9451028BE39FE10197F1F782E067
:100600008E8366E0CE010E945102E881F981048464
:10061000F585E02D6FEFCE01DF91CF911F910F9106
:10062000FF90EF90DF90CF90BF90AF909F908F9012
:10063000099408950895089580E090E00895FC01DC
:1006400023812223B9F0918190956923608382816F
:1006500091E09093A9018093CB011092AA0110928E
:10066000CC018DEC91E00E9403020E948200282FB1
:1006700030E002C020E030E081E090E0232B11F078
:1006800080E090E00895EF92FF920F931F93CF9335
:100690008C01FC01759684E0C0E060FF02C090818F
:1006A000C92B6695815031968111F7CF413011F4F5
:1006B000F8014489F8018585C82BC42B7801FEE038
:1006C000EF0EF11CF80162896C2BC7010E941F0319
:1006D000F801628960956C23C701CF911F910F913A
:1006E000FF90EF900C941F030F931F93CF93DF9312
:1006F000062F0F70423019F440E0602F10C0142F05
:10070000262FEC0130E0B90184E0759567958A9554
:10071000E1F7CE010E944303412F602FCE01DF910C
:10072000CF911F910F910C944303FC018485882382
:10073000A9F0218532852115310519F4611106C012
:1007400007C02130310521F4611102C0858701C045
:1007500015866585CF010E960C941F030895EF92C0
:10076000FF920F931F93CF93DF93EC01062FF42E8C
:10077000E22E8B85888B10923101109230011092FD
:10078000AA011092CC011092A80111E01093A701C8
:100790001092820161E082E10E940A0161E083E13E
:1007A0000E940A018091B9008E7F8093B9008091E8
:1007B000B9008D7F8093B90088E48093B80085E408
:1007C0008093BC0088891093A9018093CB0110927B
:1007D000AA011092CC010E94820091E0811190E068
:1007E000998B992329F08DEC91E00E94BC018E87B2
:1007F0008989882339F01F861C8260E0CE010E961D
:100800000E941F032E2D4F2D602FCE01DF91CF911F
:100810001F910F91FF90EF900C9459020E944E0689
:100820001F920F920FB60F9211242F933F938F9325
:100830009F93AF93BF9380917A0190917B01A09198
:100840007C01B0917D013091790123E0230F2D3798
:1008500020F40196A11DB11D05C026E8230F0296C4
:10086000A11DB11D2093790180937A0190937B01A2
:10087000A0937C01B0937D0180917E0190917F01D6
:10088000A0918001B09181010196A11DB11D8093BD
:100890007E0190937F01A0938001B0938101BF916D
:1008A000AF919F918F913F912F910F900FBE0F901D
:1008B0001F9018951F920F920FB60F9211242F932D
:1008C0003F934F935F936F937F938F939F93AF93D8
:1008D000BF93EF93FF938091B900887F803609F42E
:1008E0009CC068F5883209F45BC090F4803109F44B
:1008F00054C038F4882309F4F6C0883009F44DC098
:10090000F6C0883109F44CC0803209F45DC0EFC0F4
:10091000803409F468C048F4803309F455C0883342
:1009200009F0E5C08093A601D8C0803509F44FC016
:10093000883509F45DC0883409F0D9C0D6C088393B
:1009400009F4C7C0A8F4883709F467C038F48836BA
:1009500009F463C0803709F460C0C9C0883809F45D
:10096000B8C0803909F45FC0803809F0C0C05BC0EE
:10097000803B09F486C038F4803A09F466C0883AAE
:1009800009F47FC0B4C0803C09F4A7C0883C09F4D6
:10099000A4C0883B09F48AC0AAC08091830110C01A
:1009A0009091A5018091A401981770F5E091A5019F
:1009B00081E08E0F8093A501F0E0EC57FE4F80811F
:1009C0008093BB0085EC86C08093A6018EC0E09129
:1009D000A50181E08E0F8093A5018091BB00F0E01E
:1009E000EC57FE4F80839091A5018091A4016EC0C9
:1009F000E091A50181E08E0F8093A5018091BB005D
:100A0000F0E0EC57FE4F80838091A70181116DC00B
:100A100081E08093820184EA61C083E08093A80131
:100A200010927801CFCF80917801803208F051C0C8
:100A3000E091780181E08E0F809378018091BB0076
:100A4000F0E0E85AFE4F8083BDCF85EC8093BC0078
:100A50001092A80180917801803230F4E091780101
:100A6000F0E0E85AFE4F10826091780170E0E0916A
:100A70005601F091570188E591E0099510927801AF
:100A800036C084E08093A801109255011092540161
:100A9000E0915201F0915301099580915401811127
:100AA00005C081E08093540110923201E09155011C
:100AB00081E08E0F80935501F0E0EE5CFE4F808167
:100AC0008093BB009091550180915401981708F4D0
:100AD00079CF85E88093BC000AC085EC8093BC0088
:100AE0001092A80104C01092A6010E947B01FF9100
:100AF000EF91BF91AF919F918F917F916F915F9196
:100B00004F913F912F910F900FBE0F901F9018950E
:100B1000EDECF1E01382128288EE93E0A0E0B0E009
:100B200084839583A683B78384E091E09183808357
:100B3000E9EDF1E01382128286E191E091838083F6
:100B4000108A8FEF87871686118A87E2838714863B
:100B500015861286118684E0828B82E0838B81E089
:100B6000848B80E1858B80E2868B80E4878B80E8B4
:100B7000808F40E050E063E0CF010C943202CF93CD
:100B8000DF93CDB7DEB728970FB6F894DEBF0FBE60
:100B9000CDBF789484B5826084BD84B5816084BD06
:100BA00085B5826085BD85B5816085BD80916E000B
:100BB000816080936E00109281008091810082603C
:100BC0008093810080918100816080938100809179
:100BD00080008160809380008091B1008460809368
:100BE000B1008091B00081608093B00080917A0064
:100BF000846080937A0080917A00826080937A008A
:100C000080917A00816080937A0080917A00806878
:100C100080937A001092C10020E042E060E189ED0B
:100C200091E00E94AF031D8280E48E8394E19F8354
:100C300094E5988719828A8380E18B8380E58C8391
:100C40002091E00181E0211180E081953091E10166
:100C500090E0FE01E80FF91F303121F4243011F447
:100C6000618101C06581606889ED91E00E94510257
:100C700049E050E066E271E089ED91E00E94DF001A
:100C800000E010E001151105E9F30E940000FACF21
:100C9000EE0FFF1F0590F491E02D099481E090E0A4
:0A0CA000F8940C945306F894FFCF6B
:100CAA00000000000302D3011C03AD01CB01BC010B
:100CBA00AE01000000004602DF001C031B03AF0365
:100CCA003202950374034D6965726E696B209C004C
:107E0000112484B714BE81FFF0D085E080938100F7
:107E100082E08093C00088E18093C10086E0809377
:107E2000C20080E18093C4008EE0C9D0259A86E02C
:107E300020E33CEF91E0309385002093840096BBD3
:107E4000B09BFECF1D9AA8958150A9F7CC24DD24C4
:107E500088248394B5E0AB2EA1E19A2EF3E0BF2EE7
:107E6000A2D0813461F49FD0082FAFD0023811F036
:107E7000013811F484E001C083E08DD089C08234E0
:107E800011F484E103C0853419F485E0A6D080C0E4
:107E9000853579F488D0E82EFF2485D0082F10E0AE
:107EA000102F00270E291F29000F111F8ED06801E7
:107EB0006FC0863521F484E090D080E0DECF843638
:107EC00009F040C070D06FD0082F6DD080E0C81688
:107ED00080E7D80618F4F601B7BEE895C0E0D1E017
:107EE00062D089930C17E1F7F0E0CF16F0E7DF06D8
:107EF00018F0F601B7BEE89568D007B600FCFDCFD4
:107F0000A601A0E0B1E02C9130E011968C91119780
:107F100090E0982F8827822B932B1296FA010C0160
:107F200087BEE89511244E5F5F4FF1E0A038BF0790
:107F300051F7F601A7BEE89507B600FCFDCF97BE46
:107F4000E89526C08437B1F42ED02DD0F82E2BD052
:107F50003CD0F601EF2C8F010F5F1F4F84911BD097
:107F6000EA94F801C1F70894C11CD11CFA94CF0C13
:107F7000D11C0EC0853739F428D08EE10CD085E9AC
:107F80000AD08FE07ACF813511F488E018D01DD067
:107F900080E101D065CF982F8091C00085FFFCCF94
:107FA0009093C60008958091C00087FFFCCF809118
:107FB000C00084FD01C0A8958091C6000895E0E648
:107FC000F0E098E1908380830895EDDF803219F02E
:107FD00088E0F5DFFFCF84E1DECF1F93182FE3DFCA
:107FE0001150E9F7F2DF1F91089580E0E8DFEE27F6
:047FF000FF270994CA
:027FFE00040479
:0400000300007E007B
:00000001FF
